:200000000C94B2000C94DA000C94DA000C943B050C9465050C948F050C94DA000C94DA0088
:200020000C94DA000C94DA000C94DA000C94DA000C94DA000C94DA000C94DA000C94DA00F0
:200040000C9459090C94DA000C94410B0C948F0B0C94DA000C94DA000C94DA000C94DA0016
:200060000C94DA000C94DA0000C201000100110011000C0000E100000A0025002500210044
:20008000009600001900390039003600127A00001F004600460044008070000022004D002F
:2000A0004D004A00004B00003600750075007200403800004A009C009C0099008025000094
:2000C0007200EC00EC00E900C0120000E900DA01DA01D70160090000D701B603B603B3033B
:2000E000B0040000B3036E076E076B07580200006E07DC0EDC0ED80E2C010000DC0EC11DBC
:20010000C11DBE1D00000000240027002A0000000000250028002B000000000023002600F0
:20012000290004040404040404040202020202020303030303030102040810204080010256
:2001400004081020010204081020000000070002010000030406000000000000000001010B
:20016000610DFA0011241FBECFEFD8E0DEBFCDBF12E0A0E0B1E0E8EEFEE102C005900D92B8
:20018000AA3EB107D9F714E0AAEEB2E001C01D92A630B107E1F711E0C2E6D1E004C0229734
:2001A000FE010E94630FCE35D107C9F70E94B70D0C94670F0C94000008958130910581F41C
:2001C0006F5F7F4FB1F48FEE92E061E040E020E00E9424088BE093E06AE00E944B09089505
:2001E000892B39F46F5F7F4F21F48FEE92E00E94AB06089580E090E06FEF7FEF0E94DD0073
:20020000089581E090E06FEF7FEF0E94DD0008958DE061E00E94990A6AEF70E080E090E01C
:200220000E94A1098DE060E00E94990A6AEF70E080E090E00E94A109EBCF0F931F93CF934B
:20024000DF9384EE93E040E05BE460E070E00E94CA0B1092EE0284EE93E060E071E00E9437
:20026000E60E84EE93E06CE271E00E94E60E84EE93E060E071E00E94E60E84EE93E068E532
:2002800071E00E94E60E84EE93E069E571E00E94E60E84EE93E061E771E00E94E30E83E0E9
:2002A0000E94380A8C0183E00E94380A800F911F62E070E00E94180FCB01815392408D529B
:2002C000914080F084EE93E04AE050E00E94D00E84EE93E063E871E00E94E60E81E0809393
:2002E000EE020CC084EE93E04AE050E00E94D00E84EE93E06DE871E00E94E60E84E00E945C
:20030000380A8C0184E00E94380A800F911F62E070E00E94180FEB0184EE93E063E971E0BE
:200320000E94E30ECE01845491408D52914088F084EE93E0BE014AE050E00E94D00E84EE9A
:2003400093E063E871E00E94E60E81E08093EE020DC084EE93E0BE014AE050E00E94D00E49
:2003600084EE93E06DE871E00E94E60E85E00E94380A8C0185E00E94380A800F911F62E0BC
:2003800070E00E94180FEB0184EE93E065EA71E00E94E30ECE01875590408D52914088F09D
:2003A00084EE93E0BE014AE050E00E94D00E84EE93E063E871E00E94E60E81E08093EE0244
:2003C0000DC084EE93E0BE014AE050E00E94D00E84EE93E06DE871E00E94E60E8091EE02B0
:2003E000882329F484EE93E068E571E004C084EE93E067EB71E00E94E60E84EE93E060EF9C
:2004000071E00E94E60E80E00E94380A8C0180E00E94380A800F911F62E070E00E94180F46
:20042000EB0184EE93E067E072E00E94E30ECE018E5193408D52914088F084EE93E0BE0172
:200440004AE050E00E94D00E84EE93E063E871E00E94E60E81E08093EE020DC084EE93E095
:20046000BE014AE050E00E94D00E84EE93E06DE871E00E94E60E81E00E94380A8C0181E08F
:200480000E94380A800F911F62E070E00E94180FEB0184EE93E065E172E00E94E30ECE0113
:2004A0008B5D91408D52914088F084EE93E0BE014AE050E00E94D00E84EE93E063E871E05C
:2004C0000E94E60E81E08093EE020DC084EE93E0BE014AE050E00E94D00E84EE93E06DE89D
:2004E00071E00E94E60E82E00E94380A8C0182E00E94380A800F911F62E070E00E94180F62
:20050000EB0184EE93E061E272E00E94E30E8AE061E00E945A0A8AE061E00E94990A61E000
:2005200070E080E090E00E94A109CE018E5193408D52914088F084EE93E0BE014AE050E0A8
:200540000E94D00E84EE93E063E871E00E94E60E81E08093EE020DC084EE93E0BE014AE005
:2005600050E00E94D00E84EE93E06DE871E00E94E60E84EE93E068E571E00E94E60E84EE1F
:2005800093E060E372E00E94E60E84EE93E069E472E00E94E30E02E0802F61E00E945A0ACE
:2005A000802F61E00E94990A0F5F0930A9F7C2E0D0E001E08BE093E06C2F0E94D308892BE2
:2005C000F9F48091EA02882331F484EE93E06CE572E00E94E60E84EE93E063E672E00E9421
:2005E000E30E84EE93E0BE014AE050E00E94D00E84EE93E065E672E00E94E60E0093EA02F5
:200600002196C930D105B1F68091EA02882331F484EE93E06DE672E00E94E60E84EE93E0DB
:2006200068E571E00E94E60E84EE93E060E772E00E94E30E02E0802F61E00E945A0A802FEE
:2006400060E00E94990A0F5F0930A9F7C2E0D0E001E08BE093E06C2F0E94D308892BF9F008
:200660008091EB02882331F484EE93E06CE572E00E94E60E84EE93E063E672E00E94E30E7B
:2006800084EE93E0BE014AE050E00E94D00E84EE93E065E672E00E94E60E0093EB0221968D
:2006A000C930D105B1F68091EB02882331F484EE93E06DE672E00E94E60E84EE93E068E5A4
:2006C00071E00E94E60E84EE93E063E872E00E94E30E02E0802F60E00E945A0A802F60E058
:2006E0000E94990A0F5F0930A9F702E08BE093E0602F41E00E940E098BE093E0602F41E0B7
:200700000E94E4080F5F093089F7C2E0D0E001E08C2F0E94ED0A0197F9F08091EC02882372
:2007200031F484EE93E06CE572E00E94E60E84EE93E063E672E00E94E30E84EE93E0BE01BF
:200740004AE050E00E94D00E84EE93E065E672E00E94E60E0093EC022196C930D105C1F6E9
:200760008091EC02882331F484EE93E06DE672E00E94E60E84EE93E068E571E00E94E60E71
:2007800084EE93E066E972E00E94E30E02E0802F60E00E945A0A802F60E00E94990A0F5FC7
:2007A0000930A9F702E08BE093E0602F41E00E940E098BE093E0602F40E00E94E4080F5FAE
:2007C000093089F7C2E0D0E001E08C2F0E94ED0A892BF9F08091ED02882331F484EE93E087
:2007E0006CE572E00E94E60E84EE93E063E672E00E94E30E84EE93E0BE014AE050E00E940D
:20080000D00E84EE93E065E672E00E94E60E0093ED022196C930D105C1F68091ED02882378
:2008200031F484EE93E06DE672E00E94E60E84EE93E068E571E00E94E60E02E08BE093E09A
:20084000602F40E00E940E090F5F0930B9F702E0802F61E00E945A0A802F61E00E94990ACC
:200860000F5F0930A9F70E94520884EE93E00E94510C80E060E00E945A0A81E060E00E9468
:200880005A0A8091EE028823C9F48091EA028823A9F48091EB02882389F48091EC02882376
:2008A00069F48091ED02882349F482E060E00E94990A8DE061E00E94990AFFCF83E060E0A8
:2008C0000E94990A0E940801DF91CF911F910F910895EF92FF920F931F938FEEE82E82E010
:2008E000F82EC70140E855E260E070E00E94B9058AE061E00E945A0A8BE061E00E945A0A58
:200900008CE060E00E945A0A8DE061E00E945A0A8AE061E00E94990A0E9456088BE093E0A3
:2009200060E00E9499088DE061E00E945A0A8DE060E00E94990A09EA12E0C701B8010E9486
:20094000E60E64E670E080E090E00E94A109C701B8010E94E60E64E670E080E090E00E94CA
:20096000A109C701B8010E94E60EC7016CEA72E00E94E60EC7016FEB72E00E94E60E80E046
:2009800060E00E945A0A81E060E00E945A0A80E00E94350A0E941D011F910F91FF90EF900B
:2009A00008950F931F93CF93DF93FC01738D76957170A685B7859585772329F08C9189238C
:2009C00009F454C004C08C91892309F04FC08389948920E001972FEF8F3F9207D9F7C5890D
:2009E000D689A685B785158560E031E040E050E000E0CE01202F01972FEF8F3F9207D9F70B
:200A00008C91812311F0632B03C0832F80956823330F4F5F5F4F4830510559F78789908D88
:200A200020E001972FEF8F3F9207D9F771116095809151032091520390E001968F739070DE
:200A400030E08217930779F0E0915103F0E0EF5EFC4F60838091510390E001968F7390706C
:200A60008093510303C0838D8160838FDF91CF911F910F9108951F920F920FB60F9211249F
:200A80002F933F934F935F936F937F938F939F93AF93BF93EF93FF9380910F039091100387
:200AA000009711F00E94D104FF91EF91BF91AF919F918F917F916F915F914F913F912F91C7
:200AC0000F900FBE0F901F9018951F920F920FB60F9211242F933F934F935F936F937F9346
:200AE0008F939F93AF93BF93EF93FF9380910F0390911003009711F00E94D104FF91EF9184
:200B0000BF91AF919F918F917F916F915F914F913F912F910F900FBE0F901F9018951F926D
:200B20000F920FB60F9211242F933F934F935F936F937F938F939F93AF93BF93EF93FF9301
:200B400080910F0390911003009711F00E94D104FF91EF91BF91AF919F918F917F916F912F
:200B60005F914F913F912F910F900FBE0F901F901895CF92DF92EF92FF920F931F93CF9314
:200B8000DF93EC017A018B011A8E198E188E1F8A1E8A1D8A1C8A1B8A20E030E06901CC0C65
:200BA000DD1CC20ED31EB601660F771F660F771FAB0148595F4FFA0185919591A591B49101
:200BC0008E159F05A007B107E9F4FB01E459FF4F859194919C8B8B8BFB01E259FF4F8591F8
:200BE00094919E8B8D8BFB01E059FF4F85919491988F8F8BFB01EE58FF4F859194919A8F9C
:200C0000898F06C02F5F3F4F2D30310509F0C6CF8F89988D892B09F449C04C85463108F082
:200C20003DC090916800483010F484E005C04E3010F082E001C081E0892B809368004830E0
:200C400028F4EDE6F0E0ADE6B0E00BC04E3028F0ECE6F0E0ACE6B0E004C0EBE6F0E0ABE697
:200C6000B0E05081483040F481E090E002C0880F991F4A95E2F710C0242F30E04E3018F410
:200C80002850304002C02E50304081E090E002C0880F991F2A95E2F7852B8C93898D9A8D36
:200CA00020E001972FEF8F3F9207D9F780910F03909110038C179D0781F08B8D8E7F8B8FF9
:200CC0009FB7F894109251038091510380935203D0931003C0930F039FBFDF91CF911F91B6
:200CE0000F91FF90EF90DF90CF900895FC014485463180F5483028F4EDE6F0E0ADE6B0E0CF
:200D00000BC04E3028F4EBE6F0E0ABE6B0E004C0ECE6F0E0ACE6B0E05081483040F481E046
:200D200090E002C0880F991F4A95E2F710C0242F30E04E3018F42850304002C02E50304025
:200D400081E090E002C0880F991F2A95E2F7809585238C930895FC018DEC92E091838083A1
:200D6000CF010E947606089520910F03309110032817390731F49091520380915103981723
:200D800019F42FEF3FEF0FC0E0915203F0E0EF5EFC4F20818091520390E001968F739070ED
:200DA0008093520330E0C901089520910F03309110032817390719F020E030E00EC0809146
:200DC00051032091520390E0805C9F4F821B910960E470E00E94180F9C01C90108950F9345
:200DE0001F93DC0159968D919C915A97892B49F481E090E013969C938E93129720E030E0C5
:200E000097C00FB7F8945B968C915B975196ED91FC91529750962C91509781FF8DC08081F6
:200E2000822B808359968D919C915A97059620E001972FEF8F3F9207D9F75B968C915B974F
:200E400081FF35C031E040E050E070E010E0832F90E0862397235196ED91FC915297509636
:200E60002C915097892B29F0808120952823208303C08081822B808359968D919C915A97BE
:200E8000212F01972FEF8F3F9207D9F7330F4F5F5F4F48305105D9F65196ED91FC915297FF
:200EA000908150968C9150978095892333C031E040E050E070E010E0832F90E0862397235D
:200EC0005196ED91FC91529750962C915097892B21F08081822B808304C080812095282372
:200EE000208359968D919C915A97212F01972FEF8F3F9207D9F7330F4F5F5F4F483051057B
:200F0000D9F65196ED91FC915297808150969C915097892B80830FBF59968D919C915A977C
:200F200020E001972FEF8F3F9207D9F721E030E0C9011F910F910895808120952823208358
:200F400071CF20910F03309110032817390749F49FB7F89410925103809151038093520359
:200F60009FBF089520910F03309110032817390731F49091520380915103981719F42FEF86
:200F80003FEF0AC0E0915203F0E0EF5EFC4F8081282F332727FD3095C90108951F93CF9315
:200FA000DF93EC01162F862F60E00E945A0A8B8D81FD04C0812F61E00E94990A1C87212F0F
:200FC00030E0C9018A5C9E4FFC0184918D872E5D3E4FF9016491E62FF0E0EE0FFF1FE85EF1
:200FE000FE4F859194919F878E87DF91CF911F910895FF920F931F938C01F62E862F61E085
:201000000E945A0A8F2D61E00E94990A8F2D90E0FC01EA5CFE4FE491D8015096EC93509732
:201020008E5D9E4FFC016491E62FF0E0EE0FFF1FE25FFE4F8591949152969C938E935197FD
:201040001F910F91FF900895FF920F931F938C01F62EFC011382128288EE93E0A0E0B0E05F
:2010600084839583A683B7838DEC92E091838083148A138A168A158A108E178A128E118EF4
:20108000838D2170220F8C7F822B838FC801642F0E94F907C8016F2D0E94CE071F910F918A
:2010A000FF9008958CB58F7B8CBD08958AE061E00E94990A8AE061E00E945A0A8CB5806110
:2010C0008CBD8CB580648CBD8DE061E00E945A0A8BE061E00E945A0A0895FF920F931F9371
:2010E000CF93DF93EC01162F042FF52E888160E00E94990A8B818EBD0DB407FEFDCF8EB5DA
:201100001EBD0DB407FEFDCF8EB50EBD0DB407FEFDCF8EB5FEBC0DB407FEFDCF8EB58881E7
:2011200061E00E94990ADF91CF911F910F91FF900895662319F040E050E002C04FEF5FEFAD
:2011400060E00E946D0808950F931F93CF93DF93EC01162F888160E00E94990A8A818EBD5D
:201160000DB407FEFDCF8EB51EBD0DB407FEFDCF8EB51EBC0DB407FEFDCF0EB51EBC0DB420
:2011800007FEFDCF1EB5888161E00E94990A912F80E0202F30E0282B392BC901DF91CF914C
:2011A0001F910F9108951F93162F62E10E94A40821E030E002C0220F331F1A95E2F7282391
:2011C0003923C9011F9108951F93CF93DF93EC01162F442369F062E10E94A40841E050E042
:2011E00002C0440F551F1A95E2F7482B592B0EC062E10E94A40841E050E002C0440F551FAE
:201200001A95E2F74095509548235923CE0162E10E946D08DF91CF911F9108951F93CF934B
:20122000DF93EC01162F442369F460E00E94A40841E050E002C0440F551F1A95E2F7482BE3
:20124000592B0EC060E00E94A40841E050E002C0440F551F1A95E2F74095509548235923AB
:20126000CE0160E00E946D08DF91CF911F910895EF92FF921F937C01162F862F61E00E940D
:201280005A0A812F61E00E94990AF70110831F91FF90EF9008950F931F938C010E9438090A
:2012A000F801118281E4828380E483831F910F9108951F920F920FB60F9211242F933F9360
:2012C0008F939F93AF93BF938091570390915803A0915903B0915A0330915B030196A11DA0
:2012E000B11D232F2D5F2D3720F02D570196A11DB11D20935B038093570390935803A093F8
:201300005903B0935A038091530390915403A0915503B09156030196A11DB11D8093530343
:2013200090935403A0935503B0935603BF91AF919F918F913F912F910F900FBE0F901F90E2
:2013400018959B01AC017FB7F8948091530390915403A0915503B091560366B5A89B05C0B0
:201360006F3F19F00196A11DB11D7FBFBA2FA92F982F8827860F911DA11DB11D62E0880F76
:20138000991FAA1FBB1F6A95D1F7BC012DC0FFB7F8948091530390915403A0915503B09196
:2013A0005603E6B5A89B05C0EF3F19F00196A11DB11DFFBFBA2FA92F982F88278E0F911D97
:2013C000A11DB11DE2E0880F991FAA1FBB1FEA95D1F7861B970B885E9340C8F221503040EF
:2013E0004040504068517C4F211531054105510571F60895789484B5826084BD84B58160CB
:2014000084BD85B5826085BD85B5816085BDEEE6F0E0808181608083E1E8F0E0108280811B
:2014200082608083808181608083E0E8F0E0808181608083E1EBF0E0808184608083E0EB16
:20144000F0E0808181608083EAE7F0E0808184608083808182608083808181608083808182
:20146000806880831092C10008958093C8020895982F8E3008F09E5097708091C8028295A3
:20148000880F880F807C892B80937C0080917A00806480937A0080917A0086FDFCCF209159
:2014A000780040917900942F80E030E0282B392BC9010895CF93DF93482F50E0CA018A5CED
:2014C0009E4FFC0134914E5D5E4FFA018491882369F190E0880F991FFC01EC5FFE4FA59166
:2014E000B491FC01E25FFE4FC591D491662351F42FB7F8948C91932F909589238C93888149
:2015000089230BC0623061F42FB7F8948C91932F909589238C938881832B88832FBF06C0B6
:201520009FB7F8948C91832B8C939FBFDF91CF910895482F50E0CA01865B9E4FFC01249122
:20154000CA018A5C9E4FFC0194914E5D5E4FFA013491332309F440C0222351F1233071F025
:20156000243028F42130A1F0223011F514C02630B1F02730C1F02430D9F404C08091800078
:201580008F7703C0809180008F7D8093800010C084B58F7702C084B58F7D84BD09C0809121
:2015A000B0008F7703C08091B0008F7D8093B000E32FF0E0EE0FFF1FE25FFE4FA591B4911C
:2015C0002FB7F894662321F48C919095892302C08C91892B8C932FBF0895682F70E0CB011D
:2015E000865B9E4FFC012491CB018A5C9E4FFC0144916E5D7E4FFB019491992319F420E078
:2016000030E03CC0222351F1233071F0243028F42130A1F0223011F514C02630B1F02730B7
:20162000C1F02430D9F404C0809180008F7703C0809180008F7D8093800010C084B58F777B
:2016400002C084B58F7D84BD09C08091B0008F7703C08091B0008F7D8093B000892F90E037
:20166000880F991F885E9E4FFC01A591B4918C9120E030E0842311F021E030E0C901089583
:2016800008951F920F920FB60F9211242F933F934F938F939F93EF93FF938091C00082FD92
:2016A0001DC04091C60020919C0330919D032F5F3F4F2F73307080919E0390919F032817F3
:2016C000390771F0E0919C03F0919D03E45AFC4F408330939D0320939C0302C08091C6009E
:2016E000FF91EF919F918F914F913F912F910F900FBE0F901F901895E091F003F091F103DA
:20170000E05CFF4F8191919120813181821B930B8F739070892B11F00E94400B08951F928B
:201720000F920FB60F9211242F933F938F939F93EF93FF932091E0033091E1038091E20342
:201740009091E3032817390731F48091C1008F7D8093C10014C0E091E203F091E303E05665
:20176000FC4F20818091E2039091E30301968F7390709093E3038093E2032093C600FF91DD
:20178000EF919F918F913F912F910F900FBE0F901F901895AF92BF92DF92EF92FF920F93CB
:2017A0001F93CF93DF93EC017A018B01DD24403081EE580780E0680780E0780711F0DD24C0
:2017C000D39491E0A92EB12CEC89FD89DD2069F0C50108A002C0880F991F0A94E2F7808333
:2017E00060E079E08DE390E005C0108260E874E88EE190E0A80197010E942B0F2150304098
:2018000040405040569547953795279580E12030380720F0DD2011F0DD24D6CFE889F989D2
:201820003083EA89FB89208319A2EE89FF89408121E030E0C9010C8C02C0880F991F0A94BE
:20184000E2F7482B4083EE89FF894081C9010D8C02C0880F991F0A94E2F7482B4083EE8921
:20186000FF894081C9010E8C02C0880F991F0A94E2F7482B4083EE89FF8980810F8C02C0A0
:20188000220F331F0A94E2F7209528232083DF91CF911F910F91FF90EF90DF90BF90AF9080
:2018A0000895CF93DF93DC011E968D919C911F97EC01C05CDF4FFC01EE5BFF4F28813981F7
:2018C0008081918128173907C9F75696ED91FC915797408121E030E0C9015C960C905C97B4
:2018E00002C0880F991F0A94E2F78095842380835696ED91FC9157974081C9015D960C90A2
:201900005D9702C0880F991F0A94E2F78095842380835696ED91FC9157974081C9015E9628
:201920000C905E9702C0880F991F0A94E2F78095842380835696ED91FC91579780815F96F4
:201940000C905F9702C0220F331F0A94E2F72095282320831C96ED91FC911D97EE5BFF4F8E
:201960008081918192938293DF91CF910895DC011C96ED91FC911D97E05CFF4F2191319161
:2019800080819181281B390B2F733070C9010895DC011C96ED91FC911D97E05CFF4F20818B
:2019A0003181E054F040DF01AE5BBF4F8D919C9111972817390719F42FEF3FEF07C08D916A
:2019C0009C91E80FF91F8081282F30E0C9010895DC011C96ED91FC911D97E05CFF4F208183
:2019E0003181E054F040DF01AE5BBF4F8D919C9111972817390719F42FEF3FEF10C08D9121
:201A00009C911197E80FF91F20818D919C91119701968F73907011969C938E9330E0C901E4
:201A20000895DC0191968C919197882339F05496ED91FC915597808186FFF9CF91961C92E8
:201A40000895CF93DF93EC01EE85FF85E05CFF4F20813181E054F0402F5F3F4F2F73307092
:201A6000DF01AE5BBF4F8D919C91119728173907D1F3E05CFF4F80819181E054F040E80F41
:201A8000F91F6083EE85FF85E05CFF4F31832083EE89FF89208181E090E00F8C02C0880F0E
:201AA000991F0A94E2F7282B208381E089A3EC89FD8980818064808381E090E0DF91CF91F0
:201AC00008951092E7031092E60388EE93E0A0E0B0E08093E8039093E903A093EA03B093E9
:201AE000EB038DED92E09093E5038093E4038CE593E09093F1038093F00380EA93E0909306
:201B0000F3038093F20385EC90E09093F5038093F40384EC90E09093F7038093F60380EC4C
:201B200090E09093F9038093F80381EC90E09093FB038093FA0382EC90E09093FD038093E6
:201B4000FC0386EC90E09093FF038093FE0384E08093000483E08093010487E080930204F5
:201B600085E08093030481E0809304040895CF93DF930E94FA090E946904CCE7DBE00E9435
:201B8000DC002097E1F30E947C0BF9CFCF92DF92EF92FF920F931F93CF93DF937C016B01F8
:201BA0008A01C0E0D0E00FC0D6016D916D01D701ED91FC910190F081E02DC7010995C80F09
:201BC000D91F015010400115110571F7CE01DF91CF911F910F91FF90EF90DF90CF90089570
:201BE000EF92FF920F931F938C01DC01ED91FC910190F081E02D6DE009957C01D801ED913C
:201C0000FC910190F081E02DC8016AE009959C012E0D3F1DC9011F910F91FF90EF9008957E
:201C2000CF93DF93EC016115710519F420E030E00FC0DB010D900020E9F71197A61BB70B67
:201C4000E881F9810280F381E02DAD0109959C01C901DF91CF9108954F925F927F928F927A
:201C60009F92AF92BF92CF92DF92EF92FF920F931F93DF93CF93CDB7DEB7A1970FB6F894F3
:201C8000DEBF0FBECDBF2C01742ECB01223008F42AE019A231E2C32ED12CCC0EDD1E822E1A
:201CA0009924AA24BB24672D752FA50194010E942B0F79018A01C801B701A50194010E9408
:201CC000F90E472D461B0894C108D1084A3014F4405D01C0495CF6014083E114F1040105BB
:201CE000110521F07E2C5F2DC801DDCFC201B6010E94100EA1960FB6F894DEBF0FBECDBF5A
:201D0000CF91DF911F910F91FF90EF90DF90CF90BF90AF909F908F907F905F904F90089571
:201D2000CF92DF92EF92FF920F931F93CF93DF93EC016A017B012115310541F4E881F9813F
:201D40000190F081E02D642F09951FC02A303105D1F477FF17C0E881F9810190F081E02DD0
:201D60006DE209958C0144275527BA014C195D096E097F09CE012AE00E942C0E9801280FF8
:201D8000391F04C02AE00E942C0E9C01C901DF91CF911F910F91FF90EF90DF90CF90089541
:201DA000EF92FF920F931F937B019A010027F7FC0095102FB801A7010E94900E1F910F91C7
:201DC000FF90EF9008950E94100E0895EF92FF920F931F937C010E94100E8C01C7010E9461
:201DE000F00D080F191FC8011F910F91FF90EF900895629FD001739FF001829FE00DF11DE2
:201E0000649FE00DF11D929FF00D839FF00D749FF00D659FF00D9927729FB00DE11DF91FC2
:201E2000639FB00DE11DF91FBD01CF011124089597FB092E07260AD077FD04D02ED006D081
:201E400000201AF4709561957F4F0895F6F7909581959F4F0895A1E21A2EAA1BBB1BFD01D7
:201E60000DC0AA1FBB1FEE1FFF1FA217B307E407F50720F0A21BB30BE40BF50B661F771FD8
:201E8000881F991F1A9469F760957095809590959B01AC01BD01CF010895AA1BBB1B51E160
:201EA00007C0AA1FBB1FA617B70710F0A61BB70B881F991F5A95A9F780959095BC01CD0107
:201EC0000895EE0FFF1F0590F491E02D099411E0C2E6D1E004C0FE010E94630F2296C436B3
:201EE000D107C9F7F894FFCF232323232323232323232323232323232323232323232323A8
:201F0000232323232323232323232323232323232323230023232323232323232323206248
:201F2000715A554D204254333238204175746F7465737420232323232323232323232300C7
:201F4000005374617274696E6720616E616C6F6720746573742E2E2E00416E616C6F6720C7
:201F600074657374202331202D2000202D204641494C454400202D204F4B00416E616C6FBC
:201F8000672074657374202332202D2000416E616C6F672074657374202333202D200041C2
:201FA0006E616C6F67206572726F727320666F756E642C20706F7765722074657374206D31
:201FC00061792073686F772077726F6E6720726573756C74730A0D005374617274696E6764
:201FE00020706F77657220746573742E2E2E0035565F4850204C696E65202D2000335633D7
:20200000204C696E65202D200035565F526567204C696E65202D20005374617274696E6742
:20202000206469676974616C20746573742E2E2E004469676974616C207465737420233126
:20204000202D20004641494C4544004400204641494C4544004F4B004469676974616C20ED
:2020600074657374202332202D20004469676974616C2074657374202333202D2000446990
:20208000676974616C2074657374202334202D200041540041542B4E414D4562715A554D26
:2020A0005F42543332380041542B4241554435000100000000EF06C60DD506B406B207A1C5
:2020C0000700000000210DC60DB70CE80CC80C110D00FFFFFFFFFFFFFFFFFFFFFFFFFFFF5D
:2020E000FFFFFFFFFFFFFFFFFFFFFFFFFFFFFFFFFFFFFFFFFFFFFFFFFFFFFFFFFFFFFFFF00
:20210000FFFFFFFFFFFFFFFFFFFFFFFFFFFFFFFFFFFFFFFFFFFFFFFFFFFFFFFFFFFFFFFFDF
:20212000FFFFFFFFFFFFFFFFFFFFFFFFFFFFFFFFFFFFFFFFFFFFFFFFFFFFFFFFFFFFFFFFBF
:20214000FFFFFFFFFFFFFFFFFFFFFFFFFFFFFFFFFFFFFFFFFFFFFFFFFFFFFFFFFFFFFFFF9F
:207800000C94343C0C94513C0C94513C0C94513C0C94513C0C94513C0C94513C0C94513C1D
:207820000C94513C0C94513C0C94513C0C94513C0C94513C0C94513C0C94513C0C94513CE0
:207840000C94513C0C94513C0C94513C0C94513C0C94513C0C94513C0C94513C0C94513CC0
:207860000C94513C0C94513C11241FBECFEFD8E0DEBFCDBF11E0A0E0B1E0E4E8FFE702C087
:2078800005900D92A230B107D9F712E0A2E0B1E001C01D92AD30B107E1F70E942D3D0C94CC
:2078A000C03F0C94003C982F9595959595959595905D8F708A307CF0282F295A8091C000C1
:2078C00085FFFCCF9093C6008091C00085FFFCCF2093C6000895282F205DF0CF982F8091CF
:2078E000C00085FFFCCF9093C6000895EF92FF920F931F93EE24FF2487018091C00087FD7B
:2079000017C00894E11CF11C011D111D81E4E81682E4F8068FE0080780E0180770F3E09106
:207920000401F091050109958091C00087FFE9CF8091C6001F910F91FF90EF9008950E949A
:20794000763C982F8091C00085FFFCCF9093C60091362CF490330CF09053892F08959755DB
:20796000892F08951F930E949F3C182F0E949F3C1295107F810F1F9108951F93182F882308
:2079800021F00E94763C1150E1F71F9108951F93182F0E94763C803249F0809103018F5FC1
:2079A000809303018233C1F01F9108958091C00085FFFCCF84E18093C6008091C00085FF4A
:2079C000FCCF1093C6008091C00085FFFCCF80E18093C6001F910895E0910401F0910501CF
:2079E00009951F9108950E94763C803241F0809103018F5F80930301823381F00895809177
:207A0000C00085FFFCCF84E18093C6008091C00085FFFCCF80E18093C6000895E0910401AC
:207A2000F09105010995089540E951E08823A1F02D9A28EE33E0FA013197F1F72150304072
:207A4000D1F72D9828EE33E0FA013197F1F721503040D1F7815061F708953F924F925F92B3
:207A60006F927F928F929F92AF92BF92CF92DF92EF92FF920F931F93CF93DF93000083E39E
:207A80008093C4001092C50088E18093C10086E08093C2005098589A259A82E00E94143D42
:207AA00024E1F22E9EE1E92E85E9D82E0FE0C02E10E1B12EAA24A394B1E49B2EA6E58A2E44
:207AC000F2E57F2EE0E26E2E79E4572E63E5462E50E5352E0E94763C8033B1F18133B9F187
:207AE000803409F46FC0813409F476C0823409F485C0853409F488C0803531F1823521F128
:207B0000813511F1853509F485C0863509F48DC0843609F496C0843709F403C1853709F46A
:207B200072C1863709F466C0809103018F5F80930301823379F6E0910401F0910501099559
:207B40000E94763C803351F60E94F33CC3CF0E94763C803249F78091C00085FFFCCFF0928C
:207B6000C6008091C00085FFFCCF9092C6008091C00085FFFCCF8092C6008091C00085FFEA
:207B8000FCCF7092C6008091C00085FFFCCF6092C6008091C00085FFFCCF5092C6008091A1
:207BA000C00085FFFCCF4092C6008091C00085FFFCCF3092C6008091C00085FFFCCFB09214
:207BC000C60088CF0E94763C863808F4BDCF0E94763C0E94F33C7ECF0E94763C803809F473
:207BE0009CC0813809F40BC1823809F430C1883909F48FC080E00E94C73C6CCF84E10E94AB
:207C0000BD3C0E94F33C66CF85E00E94BD3C0E94F33C60CF0E94763C809306010E94763CA3
:207C2000809307010E94F33C55CF0E94763C803309F411C183E00E94BD3C80E00E94C73C5B
:207C400049CF0E94763C809309020E94763C8093080280910C028E7F80930C020E94763C88
:207C6000853409F409C18091080290910902892B89F000E010E00E94763CF801E85FFE4F5F
:207C800080830F5F1F4F80910802909109020817190788F30E94763C803209F045CF8091E0
:207CA0000C0280FFF5C06091060170910701660F771F7093070160930601A0910802B091F5
:207CC00009021097C9F0E8E0F1E09B01AD014E0F5F1FF999FECF32BD21BD819180BDFA9A6C
:207CE000F99A2F5F3F4FE417F50799F76A0F7B1F70930701609306018091C00085FFFCCF16
:207D0000F092C6008091C00085FFFCCFB092C600E1CE83E00E94C73CDDCE82E00E94C73C8A
:207D2000D9CE0E94763C809309020E94763C809308028091060190910701880F991F909306
:207D40000701809306010E94763C853409F49AC080910C028E7F80930C020E94763C80324A
:207D600009F0B8CE8091C00085FFFCCFF092C600A0910802B09109021097C1F180910C021D
:207D8000082F0170182F16951170E0910601F0910701AF014F5F5F4FBA0120E030E00023CD
:207DA000B1F4112339F494918091C00085FFFCCF9093C6002F5F3F4FCB010196FA012A17D4
:207DC0003B0780F4BC014F5F5F4F002351F3F999FECFF2BDE1BDF89A90B58091C00085FF95
:207DE000FCCFE6CF70930701609306018091C00085FDE5CE8091C00085FFF8CFE0CE81E0CD
:207E00000E94C73C67CE0E94763C803209F08CCE8091C00085FFFCCFF092C6008091C000F6
:207E200085FFFCCFE092C6008091C00085FFFCCFD092C6008091C00085FFFCCFC092C6003B
:207E40008091C00085FFFCCFB092C60043CE80E10E94C73C3FCE0E94763C0E94763C182FE7
:207E60000E94763C112309F483C0113009F484C08FE00E94C73C2ECE80910C028160809395
:207E80000C02F1CE80910C02816080930C0265CF809107018823880F880B8A2180930B0207
:207EA0008091060190910701880F991F90930701809306018091080280FF09C0809108026F
:207EC0009091090201969093090280930802F894F999FECF1127E0910601F0910701C8E0C8
:207EE000D1E08091080290910902103091F40091570001700130D9F303E000935700E89525
:207F00000091570001700130D9F301E100935700E895099019900091570001700130D9F32A
:207F200001E000935700E8951395103498F011270091570001700130D9F305E00093570028
:207F4000E8950091570001700130D9F301E100935700E8953296029709F0C7CF103011F0D4
:207F60000296E5CF11248091C00085FFC5CEC8CE8EE10E94C73CAECD85E90E94C73CAACDE9
:067F8000F894FFCF800021
:00000001FF
